:100000000C94AB000C94C8000C94C8000C94C8006D
:100010000C94C8000C94C8000C94C8000C94C80040
:100020000C94C8000C94C8000C94C8000C94C80030
:100030000C94C8000C94E1010C94C8000C94C80006
:100040000C94C8000C94C8000C94C8000C94C80010
:100050000C94C8006E616E00696E660000407A10F4
:10006000F35A00A0724E18090010A5D4E80000E869
:100070007648170000E40B54020000CA9A3B0000C7
:1000800000E1F505000080969800000040420F0056
:100090000000A08601000000102700000000E80317
:1000A000000000006400000000000A0000000000E2
:1000B0000100000000002C76D888DC674F0823DFA1
:1000C000C1DFAE59E1B1B796E5E3E453C63AE65174
:1000D000997696E8E6C28426EB898C9B62ED407C9B
:1000E0006FFCEFBC9C9F40F2BAA56FA5F490055A37
:1000F0002AF75C936B6CF9676DC11BFCE0E40D475C
:10010000FEF520E6B500D0ED902E0300943577057E
:100110000080841E080000204E0A000000C80C3336
:100120003333330F986E12831141EF8D2114893BC5
:10013000E65516CFFEE6DB18D1844B381BF77C1D45
:10014000901DA4BBE424203284725E228100C9F198
:1001500024ECA1E53D2711241FBECFE5D8E0DEBF8A
:10016000CDBF11E0A0E6B0E0EAE2F9E102C00590FF
:100170000D92AE31B107D9F721E0AEE1B1E001C097
:100180001D92A439B207E1F70E948A030C94930CE4
:100190000C94000011B888E480B984E086BF08950B
:1001A00084EA86BF06B607FEFDCF089584E986BFC0
:1001B00006B604FCFDCF089590E0880F991F862BAA
:1001C00083B984E886BF06B607FEFDCF81B1887F7C
:1001D000089583B984E886BF06B607FEFDCF81B1D6
:1001E000887F0895813021F488E08093600008952D
:1001F0001092600008951F93CF93DF93D82FC62FDE
:100200000E94D00060E080916B010E94DC001D2FF5
:100210001C2B80916000812B0E94E9000E94D60077
:100220000E94D00060E080916B010E94DC00809110
:100230006000812B84600E94E9000E94D6008FE854
:1002400091E00197F1F700C000000E94D00060E04B
:1002500080916B010E94DC00DB7FCD2B80916000E0
:100260008C2B0E94E9000E94D6008FE99FE0019745
:10027000F1F700C00000DF91CF911F910895CF9357
:10028000C82F60E0807F0E94FB0060E08C2F829589
:10029000807F0E94FB00CF910895CF93C82F0E94CA
:1002A000CA0081E00E94F2008FE39CE90197F1F718
:1002B00000C00000C0936B0182E00E943F0188E211
:1002C0000E943F018CE00E943F0186E00E943F01B6
:1002D00081E00E943F01CF910895CF93C82F61E044
:1002E000807F0E94FB0061E08C2F8295807F0E94BE
:1002F000FB00CF9108950F931F93CF93DF938C0151
:10030000C0E0D0E003C00E946D012196F801EC0F1F
:10031000FD1F80818111F7CFDF91CF911F910F9148
:100320000895CF93DF93EA01613031F058F06230E5
:1003300029F0633029F007C090EC05C094E903C0B0
:1003400094ED01C090E88F70892B0E943F01CE018F
:100350000E947B01DF91CF9108959C0140E050E025
:1003600060E271EA87E090E00E94710A2150310951
:1003700030BD29B988E98AB98EE880BD789408959E
:100380005D9BFECF8CB90895CF93DF93EC0103C042
:1003900021960E94C00188818111FACFDF91CF910F
:1003A0000895CF93DF93EC0103C021960E94C00112
:1003B00088818111FACF8DE00E94C001DF91CF9139
:1003C00008951F920F920FB60F9211242F933F930F
:1003D0004F938F939F93AF93BF93EF93FF934CB142
:1003E000E0E003C0EF5FE43139F0AE2FB0E0A15D93
:1003F000BE4F8C918111F6CFE43188F4F0E0E15DDD
:10040000FE4F408311C0822F90E0FC01E05DFE4F63
:100410003081FC01E15DFE4F30832F5F01C020E0A1
:10042000233188F340934201FF91EF91BF91AF9147
:100430009F918F914F913F912F910F900FBE0F90F1
:100440001F90189580E006C0E82FF0E0E15DFE4FB8
:1004500010828F5F8431C0F30895CF92DF92EF92C4
:10046000FF9210922601109225011092240180E043
:1004700033C098B3916098BB9AE19A95F1F700C0A8
:10048000B79B11C047E050E0481B510921E030E024
:1004900002C0220F331F4A95E2F790912601292BC3
:1004A0002093260111C047E050E0481B510921E08C
:1004B00030E002C0220F331F4A95E2F72095909159
:1004C000260129232093260198B39E7F98BB9DE0A7
:1004D0009A95F1F700008F5F883058F280E03EC0B7
:1004E00098B3916098BB9AE19A95F1F700C0B79BD9
:1004F00016C04FE050E0481B510921E030E002C037
:10050000220F331F4A95E2F74091240150912501B3
:10051000242B352B309325012093240117C04FE065
:1005200050E0481B510921E030E002C0220F331F88
:100530004A95E2F72095309540912401509125018C
:1005400024233523309325012093240198B39E7FE3
:1005500098BB9DE09A95F1F700008F5F803108F419
:10056000BFCF809124019091250196958795909316
:100570002501809324016091260160FF05C09068E9
:10058000909325018093240166956093260170E085
:1005900080E090E00E94D70524E632EA48E650E485
:1005A0000E9487066B017C016091240170912501F6
:1005B00080E090E00E94D50523E33BED4CE856E453
:1005C0000E9463059B01AC01C701B6010E94F204C1
:1005D000FF90EF90DF90CF900895CF93DF93EC01E1
:1005E0008BB388608BBB2FEF30E782E02150304027
:1005F0008040E1F700C000008BB3877F8BBB81E0B8
:100600000E943F014AE750E060E080E00E949101D3
:1006100086E890E00E94D1019FEF24E33CE09150F6
:1006200020403040E1F700C0000086E890E00E94E2
:10063000D1018FEF94E32CE0815090402040E1F70E
:1006400000C0000089E890E00E94D1013FEF84E300
:100650009CE0315080409040E1F700C0000083E909
:1006600090E09F938F938DE990E09F938F9383E425
:1006700091E09F938F930E94130C83E491E00E947A
:10068000D1012FEF31EE84E0215030408040E1F77E
:1006900000C00000CE010E94C4019FEF21EE34E0B3
:1006A000915020403040E1F700C000008AE10E94F4
:1006B000C0018FEF91EE24E0815090402040E1F79F
:1006C00000C000000E9422023FEF89E592E622E08E
:1006D0003150804090402040D9F700C000000E9477
:1006E000220281E00E943F010F900F900F900F9027
:1006F0000F900F90DF91CF91089597B1907F8F70F9
:10070000892B87B986B1806486B93699FECF84B1CA
:1007100095B1089580E895E20E94AD0187E20E94BC
:100720004D0187B3816087BB88B38E7F88BB86E825
:1007300090E00E94D1018AB388608ABB86B187604D
:1007400086B987B1806487B986B1806886B986B179
:10075000806486B98EEA97E4A9E2B1E480932B0124
:1007600090932C01A0932D01B0932E0183EC95EF73
:10077000A0EAB1E48093270190932801A093290176
:10078000B0932A012FEF83ED90E3215080409040F9
:10079000E1F700C0000081E00E943F010E942D02AD
:1007A000062F172FD82FC92F9F938F937F936F9367
:1007B0008DEA90E09F938F938CE691E09F938F93C7
:1007C0000E94130C4CE651E060E080E00E94910131
:1007D0002FEF80E792E0215080409040E1F700C089
:1007E00000008DB79EB708960FB6F8949EBF0FBE57
:1007F0008DBF20E030E040EA51E4602F712F8D2F53
:100800009C2F0E945E058823ACF580912101811107
:1008100031C080912A018F93809129018F9380911B
:1008200028018F93809127018F9380912E018F93C0
:1008300080912D018F9380912C018F9380912B01BA
:100840008F9386EB90E09F938F938CE691E09F933C
:100850008F930E94130C8CE691E00E94ED0281E0E0
:10086000809321018DB79EB70C960FB6F8949EBF6A
:100870000FBE8DBF85E00E947D039093230180937E
:10088000220181159240A8F580912001811131C08B
:1008900080912A018F93809129018F938091280163
:1008A0008F93809127018F9380912E018F93809158
:1008B0002D018F9380912C018F9380912B018F9329
:1008C00086ED90E09F938F938CE691E09F938F93BA
:1008D0000E94130C8CE691E00E94ED0281E080936F
:1008E00020018DB79EB70C960FB6F8949EBF0FBE31
:1008F0008DBF9A9B35C080911F01811131C08091BD
:100900002A018F93809129018F93809128018F93E1
:10091000809127018F9380912E018F9380912D01DB
:100920008F9380912C018F9380912B018F938FEE69
:1009300090E09F938F938CE691E09F938F930E941A
:10094000130C8CE691E00E94ED0281E080931F0180
:100950008DB79EB70C960FB6F8949EBF0FBE8DBF95
:100960009B9B35C080911E01811131C080912A016D
:100970008F93809129018F93809128018F9380918B
:1009800027018F9380912E018F9380912D018F935A
:1009900080912C018F9380912B018F9386E091E0C1
:1009A0009F938F938CE691E09F938F930E94130CFB
:1009B0008CE691E00E94ED0281E080931E018DB7EC
:1009C0009EB70C960FB6F8949EBF0FBE8DBF9FEFDB
:1009D00024E38CE0915020408040E1F700C000000B
:1009E000DDCE5058BB27AA270E9409050C944D065E
:1009F0000E943F0638F00E94460620F039F49F3FDF
:100A000019F426F40C943C060EF4E095E7FB0C94E4
:100A10003606E92F0E945E0658F3BA17620773077D
:100A20008407950720F079F4A6F50C9480060EF45F
:100A3000E0950B2EBA2FA02D0B01B90190010C01EE
:100A4000CA01A0011124FF27591B99F0593F50F406
:100A5000503E68F11A16F040A22F232F342F44275E
:100A6000585FF3CF469537952795A795F040539556
:100A7000C9F77EF41F16BA0B620B730B840BBAF026
:100A80009150A1F0FF0FBB1F661F771F881FC2F791
:100A90000EC0BA0F621F731F841F48F487957795A5
:100AA0006795B795F7959E3F08F0B0CF9395880F5F
:100AB00008F09927EE0F9795879508950E941206E2
:100AC00008F481E008950E9477050C944D060E9479
:100AD000460658F00E943F0640F029F45F3F29F097
:100AE0000C94360651110C9481060C943C060E941D
:100AF0005E0668F39923B1F3552391F3951B550BCB
:100B0000BB27AA2762177307840738F09F5F5F4FE0
:100B1000220F331F441FAA1FA9F335D00E2E3AF01F
:100B2000E0E832D091505040E695001CCAF72BD037
:100B3000FE2F29D0660F771F881FBB1F2617370788
:100B40004807AB07B0E809F0BB0B802DBF01FF27BA
:100B500093585F4F3AF09E3F510578F00C9436065B
:100B60000C9481065F3FE4F3983ED4F38695779525
:100B70006795B795F7959F5FC9F7880F911D969573
:100B8000879597F90895E1E0660F771F881FBB1FCF
:100B9000621773078407BA0720F0621B730B840B7C
:100BA000BA0BEE1F88F7E0950895E89409C097FB0B
:100BB0003EF490958095709561957F4F8F4F9F4F34
:100BC0009923A9F0F92F96E9BB279395F695879578
:100BD00077956795B795F111F8CFFAF4BB0F11F43B
:100BE00060FF1BC06F5F7F4F8F4F9F4F16C08823E2
:100BF00011F096E911C0772321F09EE8872F762F18
:100C000005C0662371F096E8862F70E060E02AF058
:100C10009A95660F771F881FDAF7880F9695879544
:100C200097F90895990F0008550FAA0BE0E8FEEF19
:100C300016161706E807F907C0F012161306E407A0
:100C4000F50798F0621B730B840B950B39F40A2699
:100C500061F0232B242B252B21F408950A2609F477
:100C6000A140A6958FEF811D811D089597F99F677B
:100C700080E870E060E008959FEF80EC0895002424
:100C80000A941616170618060906089500240A94F1
:100C900012161306140605060895092E0394000C77
:100CA00011F4882352F0BB0F40F4BF2B11F460FF06
:100CB00004C06F5F7F4F8F4F9F4F089557FD90582F
:100CC000440F551F59F05F3F71F04795880F97FB10
:100CD000991F61F09F3F79F08795089512161306CA
:100CE0001406551FF2CF4695F1DF08C016161706F9
:100CF0001806991FF1CF869571056105089408952E
:100D0000E894BB2766277727CB0197F908950E94BF
:100D10009A060C944D060E943F0638F00E94460643
:100D200020F0952311F00C9436060C943C06112407
:100D30000C9481060E945E0670F3959FC1F3950F97
:100D400050E0551F629FF001729FBB27F00DB11D4F
:100D5000639FAA27F00DB11DAA1F649F6627B00DDF
:100D6000A11D661F829F2227B00DA11D621F739FC8
:100D7000B00DA11D621F839FA00D611D221F749FD6
:100D80003327A00D611D231F849F600D211D822F1D
:100D9000762F6A2F11249F5750409AF0F1F0882344
:100DA0004AF0EE0FFF1FBB1F661F771F881F915071
:100DB0005040A9F79E3F510580F00C9436060C94E4
:100DC00081065F3FE4F3983ED4F386957795679567
:100DD000B795F795E7959F5FC1F7FE2B880F911D9B
:100DE0009695879597F90895A0E1B0E0EAEFF6E0CF
:100DF0000C94900A7C011B016A01FC011782168287
:100E0000838181FF44C39E012F5F3F4F3901F7016A
:100E10009381F10193FD859193FF81911F018823B7
:100E200009F431C3853239F493FD859193FF8191A3
:100E30001F01853239F4B70190E00E94D70B5601AB
:100E40006501E5CF10E0512C912CFFE1F915D8F0A8
:100E50008B3279F038F4803279F08332A1F4F92DB5
:100E6000F0612EC08D3261F0803369F4292D21604C
:100E70002DC0392D3260932E892D8460982E2AC082
:100E8000E92DE86015C097FC2DC020ED280F2A3011
:100E900088F496FE06C03AE0139F200D1124122F0D
:100EA00019C08AE0589E200D1124522EE92DE062CF
:100EB0009E2E10C08E3231F496FCE5C2F92DF064FE
:100EC0009F2E08C08C3621F4292D2068922E02C056
:100ED000883641F4F10193FD859193FF81911F01C3
:100EE0008111B3CF9BEB980F933020F4992D906133
:100EF000805E07C09BE9980F933008F066C1992D7A
:100F00009F7E96FF16E09F73992E853619F49064A4
:100F1000992E08C0863621F4392F3068932E02C0EE
:100F20001111115097FE07C01C3350F44424439410
:100F3000410E27E00BC0183038F027E017E005C05D
:100F400027E09CE3492E02C0212F412C560184E06A
:100F5000A80EB11CF6016081718182819381042DFC
:100F6000A3010E94E90A6C01F981FC87F0FF02C02D
:100F7000F3FF06C091FC06C092FE06C000E205C069
:100F80000DE203C00BE201C000E08C858C7019F00B
:100F900001115AC29BC297FE10C04C0CFC85F4FF95
:100FA00004C08A81813309F44A94141474F528E04A
:100FB000241578F588E0482E2CC096FC2AC0812F95
:100FC00090E08C159D059CF03CEFC3163FEFD306D7
:100FD00074F0892D8068982E0AC0E2E0F0E0EC0FF2
:100FE000FD1FE10FF11D8081803319F411501111A3
:100FF000F4CF97FE0EC044244394410E812F90E01D
:10100000C816D9062CF41C1904C04424439401C00A
:1010100010E097FE06C01C141D0434F4C6010196AE
:1010200005C085E090E002C081E090E001110196EA
:10103000112331F0212F30E02F5F3F4F820F931F9C
:10104000252D30E08217930714F4581A01C0512C53
:10105000892D897049F4552039F0B70180E290E07C
:101060000E94D70B5A94F7CF002329F0B701802FA5
:1010700090E00E94D70B93FC09C0552039F0B701CE
:1010800080E390E00E94D70B5A94F7CF97FE4CC0B4
:101090004601D7FE02C0812C912CC60188199909FE
:1010A000F301E80FF91FFE87ED8796012419310936
:1010B000388B2F87012F10E01195019511093FEF13
:1010C0008316930629F4B7018EE290E00E94D70BB5
:1010D000C814D9044CF08F8598898815990524F493
:1010E000ED85FE85818101C080E3F1E08F1A9108D2
:1010F0002D853E852F5F3F4F3E872D8780169106B9
:101100002CF0B70190E00E94D70BD9CFC814D904B6
:1011100041F49A81963320F4953319F43C8534FFD9
:1011200081E3B70190E04EC08A81813319F09C853C
:101130009F7E9C87B70190E00E94D70B111105C0DC
:1011400094FC18C085E690E017C0B7018EE290E0ED
:101150000E94D70B1E5F82E001E0080FF301E80F49
:10116000F11D8081B70190E00E94D70B802F011301
:10117000F3CFE6CF85E490E0B7010E94D70BD7FC10
:1011800006C0C114D10441F4EC85E4FF05C0D1943C
:10119000C194D1088DE201C08BE2B70190E00E94BA
:1011A000D70B80E32AE0C216D1042CF08F5FFAE05F
:1011B000CF1AD108F7CFB70190E00E94D70BB70143
:1011C000C601C0960E94D70B54C1833631F08337D5
:1011D00079F0833509F056C020C0560132E0A30EE5
:1011E000B11CF6018081898301E010E0630112C027
:1011F0005601F2E0AF0EB11CF601C080D18096FE20
:1012000003C0612F70E002C06FEF7FEFC6010E9444
:10121000CC0B8C01F92DFF7714C0560122E0A20EF1
:10122000B11CF601C080D18096FE03C0612F70E032
:1012300002C06FEF7FEFC6010E94C10B8C01F92D38
:10124000F0689F2EF3FD1AC0852D90E0081719074E
:10125000A8F4B70180E290E00E94D70B5A94F4CF33
:10126000F60197FC859197FE81916F01B70190E09F
:101270000E94D70B51105A94015011090115110504
:1012800079F7F7C0843611F0893661F5560197FE7B
:1012900009C024E0A20EB11CF60160817181828137
:1012A00093810AC0F2E0AF0EB11CF601608171813A
:1012B000072E000C880B990BF92DFF769F2E97FFB8
:1012C00009C090958095709561957F4F8F4F9F4F86
:1012D000F0689F2E2AE030E0A3010E94350CC82E52
:1012E000C6183FC0092D853721F40F7E2AE030E073
:1012F0001DC0097F8F3691F018F4883559F0C3C0AE
:10130000803719F0883711F0BEC0006104FF09C0B2
:10131000046007C094FE08C0066006C028E030E004
:1013200005C020E130E002C020E132E0560107FFB5
:1013300009C084E0A80EB11CF60160817181828130
:10134000938108C0F2E0AF0EB11CF601608171819B
:1013500080E090E0A3010E94350CC82EC6180F77DC
:10136000902E96FE0BC0092D0E7FC11650F494FEF0
:101370000AC092FC08C0092D0E7E05C0DC2C092D88
:1013800003C0DC2C01C0D12E04FF0DC0FE01EC0D0A
:10139000F11D8081803311F4097E09C002FF06C06F
:1013A000D394D39404C0802F867809F0D39403FD9E
:1013B00011C000FF06C01C2DD51480F4150D1D1999
:1013C0000DC0D51458F4B70180E290E00E94D70B0D
:1013D000D394F7CFD51410F45D1801C0512C04FF3D
:1013E00010C0B70180E390E00E94D70B02FF17C046
:1013F00001FD03C088E790E002C088E590E0B701F6
:101400000CC0802F867859F001FF02C08BE201C02A
:1014100080E207FD8DE2B70190E00E94D70BC11674
:1014200038F4B70180E390E00E94D70B1150F7CF5A
:10143000CA94F301EC0DF11D8081B70190E00E9488
:10144000D70BC110F5CF15C0F4E0F51560F584E0B9
:10145000581A93FE1FC0011127C02C8523FF2AC0F4
:1014600004E510E0392D3071932EF801849181113B
:1014700024C0552009F4E4CCB70180E290E00E943A
:10148000D70B5A94F6CFF7018681978126C08FEF4C
:101490009FEF23C0B70180E290E00E94D70B5A94DF
:1014A0005110F8CFD8CF512CB701802F90E00E9477
:1014B000D70BD3CF08E510E0D5CF91108052B701FC
:1014C00090E00E94D70B0F5F1F4FCFCF23E0251571
:1014D00010F483E0BDCF512CC0CF6096E2E10C94B4
:1014E000AC0A052E97FB1EF400940E94880A57FD53
:1014F00007D00E94C70A07FC03D04EF40C94880A58
:1015000050954095309521953F4F4F4F5F4F08952F
:1015100090958095709561957F4F8F4F9F4F08955F
:101520002F923F924F925F926F927F928F929F92F3
:10153000AF92BF92CF92DF92EF92FF920F931F93E1
:10154000CF93DF93CDB7DEB7CA1BDB0B0FB6F89492
:10155000DEBF0FBECDBF09942A88398848885F84D2
:101560006E847D848C849B84AA84B984C884DF8043
:10157000EE80FD800C811B81AA81B981CE0FD11D27
:101580000FB6F894DEBF0FBECDBFED010895A1E206
:101590001A2EAA1BBB1BFD010DC0AA1FBB1FEE1FED
:1015A000FF1FA217B307E407F50720F0A21BB30B38
:1015B000E40BF50B661F771F881F991F1A9469F7B4
:1015C00060957095809590959B01AC01BD01CF0110
:1015D0000895283008F027E03327DA01990F311DEC
:1015E00087FD916000966105710539F432602E5FC8
:1015F0003D9330E32A95E1F708959F3F30F080381E
:101600007105610509F03C5F3C5F3D93913008F046
:101610008068911DDF93CF931F930F93FF92EF92FA
:10162000192F987F9695E92F96959695E90FFF27A4
:10163000EA54FF4F99273327EE24FF24A701E7013F
:1016400005900894079428F4360FE71EF81E491FEA
:10165000511D660F771F881F991F0694A1F70590EB
:10166000079428F4E70EF81E491F561FC11D770F77
:10167000881F991F661F0694A1F70590079428F408
:10168000F80E491F561FC71FD11D880F991F661FCF
:10169000771F0694A1F70590079420F4490F561F71
:1016A000C71FD81F990F661F771F881F0694A9F7B9
:1016B00084911095177041F0D695C7955795479529
:1016C000F794E7941A95C1F7ECE5F0E0689415906B
:1016D000159135916591959105907FE27395E1188B
:1016E000F10A430B560BC90BD009C0F7E10CF11EF0
:1016F000431F561FC91FD01D7EF4703311F48A9505
:10170000E6CFE894015030F0080F0AF400270217E2
:1017100008F4202F2395022F7A3328F079E37D9364
:101720002A95E9F710C07D932A9589F60694979536
:101730006795379517951794E118F10A430B560BE7
:10174000C90BD00998F023957E9173957A3308F0F0
:1017500070E37C932013B8F77E9170617D9330F035
:10176000839571E37D9370E32A95E1F71124EF905F
:10177000FF900F911F91CF91DF91992787FD909551
:101780000895FC010590615070400110D8F78095D4
:1017900090958E0F9F1F0895FC016150704001903D
:1017A0000110D8F7809590958E0F9F1F08950F9385
:1017B0001F93CF93DF93FB01238121FD03C08FEFA4
:1017C0009FEF2CC022FF16C04681578124813581AE
:1017D0004217530744F4A081B1819D012F5F3F4F11
:1017E000318320838C93268137812F5F3F4F37834E
:1017F000268314C08B01EC01FB010084F185E02DF0
:101800000995892BE1F6D80116968D919C91179731
:10181000019617969C938E931697CE01DF91CF91E8
:101820001F910F910895AEE0B0E0E9E1FCE00C9467
:101830009E0A0D891E8986E08C831A8309838FEFA7
:101840009FE79E838D83AE01475E5F4F6F89788DE2
:10185000CE0101960E94F406EF81F885E00FF11F9A
:1018600010822E96E4E00C94BA0AFA01AA272830D6
:1018700051F1203181F1E8946F936E7F6E5F7F4F5D
:101880008F4F9F4FAF4FB1E03ED0B4E03CD0670FD9
:10189000781F891F9A1FA11D680F791F8A1F911D2C
:1018A000A11D6A0F711D811D911DA11D20D009F47C
:1018B00068943F912AE0269F11243019305D3193BE
:1018C000DEF6CF010895462F4770405D4193B3E0A7
:1018D0000FD0C9F7F6CF462F4F70405D4A3318F04E
:1018E000495D31FD4052419302D0A9F7EACFB4E0FF
:1018F000A6959795879577956795BA95C9F70097B7
:101900006105710508959B01AC010A2E0694579557
:10191000479537952795BA95C9F7620F731F841FAE
:0A192000951FA01D0895F894FFCF55
:10192A000141542B435245473D32002B4352454710
:10193A000041542B435245473F0053656E64696E1C
:10194A006720736D730041540041542B434D474641
:10195A003D31003737363635313533350041542B72
:10196A00434D47533D222B393425732200252E330C
:10197A0066206B67200070617469656E7420686107
:10198A00732066616C6C656E200D0A20252E336605
:10199A0020252E33660062617474657279206C6F3B
:1019AA0077200D0A20252E336620252E3366006502
:1019BA006D657267656E6379200D0A20252E336680
:1019CA0020252E3366004920616D206865726520E6
:0E19DA000D0A20252E336620252E33660000D0
:00000001FF
