:100000000C942A000C943F000C943F000C943F0089
:100010000C943F000C943F000C943F000C943F0064
:100020000C943F000C943F000C943F000C943F0054
:100030000C943F000C9460000C943F000C943F0023
:100040000C943F000C943F000C943F000C943F0034
:100050000C943F0011241FBECFE5D8E0DEBFCDBF1A
:1000600010E0A0E6B0E0EEE7F1E002C005900D92EE
:10007000A236B107D9F70E9441000C94BD000C9440
:10008000000087B38E6087BB2091600030916100D3
:1000900040E050E060E271EA87E090E00E947C007E
:1000A00021503109309361002093600030BD809170
:1000B000600089B988E98AB98EE880BD7894FFCF5D
:1000C0001F920F920FB60F9211242F938F939F932D
:1000D0009CB128B3892F90E080549109880F991F13
:1000E000922F917F892B88BB9F918F912F910F9099
:1000F0000FBE0F901F901895052E97FB1EF40094CD
:100100000E94930057FD07D00E949B0007FC03D07C
:100110004EF40C94930050954095309521953F4FA7
:100120004F4F5F4F089590958095709561957F4FE3
:100130008F4F9F4F0895A1E21A2EAA1BBB1BFD01F2
:100140000DC0AA1FBB1FEE1FFF1FA217B307E407B6
:10015000F50720F0A21BB30BE40BF50B661F771F0E
:10016000881F991F1A9469F76095709580959095EE
:0E0170009B01AC01BD01CF010895F894FFCFB3
:02017E008025DA
:00000001FF
