:100000000C942A000C9447000C9447000C94470071
:100010000C9447000C9447000C9447000C942C015E
:100020000C9447000C9447000C9403040C94470074
:100030000C9447000C9447000C9447000C94470024
:100040000C949F010C9447000C9447000C944700BB
:100050000C94470011241FBECFE5D8E0DEBFCDBF12
:1000600010E0A0E6B0E0ECE6F0E102C005900D92F1
:10007000A03AB107D9F720E0A0EAB0E001C01D9294
:10008000A33CB207E1F70E9443020C9434080C949D
:10009000000011B888E480B984E086BF089584EA3E
:1000A00086BF06B607FEFDCF089584E986BF06B673
:1000B00004FCFDCF089590E0880F991F862B83B92B
:1000C00084E886BF06B607FEFDCF81B1887F08951C
:1000D00083B984E886BF06B607FEFDCF81B1887F6D
:1000E0000895813021F488E0809361000895109292
:1000F000610008951F93CF93DF93D82FC62F0E94DE
:100100004F0060E08091AA000E945B001D2F1C2B15
:1001100080916100812B0E9468000E9455000E941E
:100120004F0060E08091AA000E945B008091610016
:10013000812B84600E9468000E9455008FE891E046
:100140000197F1F700C000000E944F0060E080912D
:10015000AA000E945B00DB7FCD2B809161008C2B7D
:100160000E9468000E9455008FE99FE00197F1F717
:1001700000C00000DF91CF911F910895CF93C82F49
:1001800060E0807F0E947A0060E08C2F8295807F03
:100190000E947A00CF910895CF93C82F0E94490002
:1001A00081E00E9471008FE39CE90197F1F700C0A4
:1001B0000000C093AA0082E00E94BE0088E20E9474
:1001C000BE008CE00E94BE0086E00E94BE0081E07E
:1001D0000E94BE00CF910895CF93C82F61E0807F29
:1001E0000E947A0061E08C2F8295807F0E947A00C5
:1001F000CF9108950F931F93CF93DF938C01C0E0AD
:10020000D0E003C00E94EC002196F801EC0FFD1F26
:1002100080818111F7CFDF91CF911F910F910895C8
:10022000CF93DF93EA01613031F058F0623029F06A
:10023000633029F007C090EC05C094E903C094ED49
:1002400001C090E88F70892B0E94BE00CE010E94F1
:10025000FA00DF91CF9108951F920F920FB60F927F
:1002600011248F939F931DBC1CBC95B380E48927F8
:1002700085BB85B3805885BB80916000813021F4B7
:1002800085B38F7C85BB17C0823039F485B380611C
:1002900085BB85B38F7D85BB0EC0833039F485B3B4
:1002A000806285BB85B38F7E85BB05C0843019F421
:1002B00085B3806385BB9F918F910F900FBE0F9088
:1002C0001F901895B49903C01092A2000BC0B59965
:1002D00004C081E08093A20005C0B69903C082E00B
:1002E0008093A2009091A2008091A100981731F113
:1002F00081E00E94BE008091A200813059F018F088
:10030000823091F017C042E650E060E080E00E9449
:10031000100110C040E750E060E080E00E94100152
:1003200089B78F7E89BF06C04CE750E060E080E06F
:100330000E9410018091A2008093A10008951F9255
:100340000F920FB60F9211242F938F939F93EF93D9
:10035000FF9397B18091A900907E8A5F892B87B91E
:10036000E091A900F0E084B195B1EE0FFF1FE154D8
:10037000FF4F918380839091A90081E0911180E0EB
:100380008093A9008091A20081113BC08091BF00A1
:100390009091C0008D32934038F083E080936000EC
:1003A00089B7806189BF2DC08091BF009091C00046
:1003B000843D910538F482E08093600089B78061C4
:1003C00089BF1FC08091C1009091C2008D329340BF
:1003D00038F081E08093600089B7806189BF11C0E7
:1003E0008091C1009091C200843D910538F484E071
:1003F0008093600089B7806189BF03C089B78F7E11
:1004000089BFFF91EF919F918F912F910F900FBE18
:100410000F901F901895813021F485B38F7C85BB98
:1004200011C0823039F485B3806185BB85B38F7D7F
:1004300085BB08C0833049F485B3806285BB85B332
:100440008F7E85BB20E030E01AC08430D9F785B3B9
:10045000806385BBF7CF85B3806C85BB8FEC97E05D
:100460000197F1F700C0000085B38F7385BB8FEC57
:1004700097E00197F1F700C000002F5F3F4F26176C
:10048000370748F308958EB588608EBD8EB58360BA
:100490008EBD1DBC1CBC80ED97E09BBD8ABD84B3A6
:1004A000806F84BB89B7806189BF8AB388608ABB4B
:1004B00082B3886082BB8AB381608ABB83B788605D
:1004C00083BF83B7826083BF12BE8AE08CBF89B7C7
:1004D000826089BF88B3806788BB87B1806487B931
:1004E00086B18F6E86B91092A90097B18091A9004C
:1004F000907E8A5F892B87B9789487E20E94CC002E
:100500004DE850E060E085E00E9410012FEF34E3F9
:100510008CE0215030408040E1F700C000000E9494
:100520006201839903C081E08093A0008091A200C2
:100530008230A9F786B38E7090E095958795282F25
:100540003FEF380F343028F53091A000311121C031
:1005500099278230910571F01CF4019739F015C08C
:100560008330910559F0049769F00FC083E08093C0
:1005700060000BC082E08093600007C081E0809340
:10058000600003C084E08093600089B7806189BF08
:1005900003C089B78F7E89BF213009F68BB38E7F68
:1005A0008BBB95E89A95F1F700008BB381608BBB0C
:1005B00025E82A95F1F700008BB38E7F8BBB04C032
:1005C0001092A8001092A700C99BFACF08C0809192
:1005D000A7009091A8009093A6008093A500C999C8
:1005E000F6CF6091A5007091A60080E090E00E9497
:1005F000BC042EEA37E441E850E40E941B040E9448
:100600008D047093A6006093A5003FE788E391E016
:10061000315080409040E1F700C000008BB38E7FE6
:100620008BBB25E82A95F1F700008BB381608BBB6B
:1006300035E83A95F1F700008BB38E7F8BBB04C091
:100640001092A8001092A700CA9BFACF08C0809110
:10065000A7009091A8009093A4008093A300CA994A
:10066000F6CF6091A3007091A40080E090E00E941A
:10067000BC042EEA37E441E850E40E941B040E94C7
:100680008D046093A3007093A4007F936F93809177
:10069000A6008F938091A5008F9385E990E09F93AA
:1006A0008F938BEA90E09F938F930E944A054BEAC9
:1006B00050E061E080E00E9410018091A5009091DF
:1006C000A6002DB73EB7285F3F4F0FB6F8943EBF48
:1006D0000FBE2DBFC297C0F58091A3009091A400DA
:1006E000C29790F18BB388608BBB3FEF80E792E0BD
:1006F000315080409040E1F700C000008BB3877F0D
:100700008BBB62E370E081E00E940B0262E370E069
:1007100083E00E940B0262E370E084E00E940B021F
:1007200062E370E083E00E940B0262E370E084E029
:100730000E940B0262E370E083E00E940B0262E31E
:1007400070E081E00E940B028091A3009091A400D0
:10075000C297C0F58091A5009091A600C29790F134
:100760008BB388608BBB2FEF30E782E021503040A5
:100770008040E1F700C000008BB3877F8BBB62E352
:1007800070E084E00E940B0262E370E083E00E946C
:100790000B0262E370E081E00E940B0262E370E012
:1007A00083E00E940B0262E370E081E00E940B0292
:1007B00062E370E083E00E940B0262E370E084E099
:1007C0000E940B028091A5009091A600C29708F0AC
:1007D000A6CE8091A3009091A400C29708F09FCE6E
:1007E0008BB388608BBB9FEF20E732E091502040B5
:1007F0003040E1F700C000008BB3877F8BBB81E006
:100800008093A0008CCE1F920F920FB60F921124EE
:100810008F939F938091A7009091A8000196909349
:10082000A8008093A70012BE9F918F910F900FBEDA
:100830000F901F9018950E942F040C9410050E9491
:10084000090558F00E94020540F029F45F3F29F0A5
:100850000C94F90451110C9444050C94FF040E946B
:10086000210568F39923B1F3552391F3951B550B9B
:10087000BB27AA2762177307840738F09F5F5F4F73
:10088000220F331F441FAA1FA9F335D00E2E3AF0B2
:10089000E0E832D091505040E695001CCAF72BD0CA
:1008A000FE2F29D0660F771F881FBB1F261737071B
:1008B0004807AB07B0E809F0BB0B802DBF01FF274D
:1008C00093585F4F3AF09E3F510578F00C94F9042D
:1008D0000C9444055F3FE4F3983ED4F386957795F6
:1008E0006795B795F7959F5FC9F7880F911D969506
:1008F000879597F90895E1E0660F771F881FBB1F62
:10090000621773078407BA0720F0621B730B840B0E
:10091000BA0BEE1F88F7E09508950E94290588F02C
:100920009F5798F0B92F9927B751B0F0E1F0660FB3
:10093000771F881F991F1AF0BA95C9F714C0B130F4
:1009400091F00E944305B1E008950C944305672F90
:10095000782F8827B85F39F0B93FCCF38695779523
:100960006795B395D9F73EF490958095709561950C
:100970007F4F8F4F9F4F0895E89409C097FB3EF437
:1009800090958095709561957F4F8F4F9F4F9923DC
:10099000A9F0F92F96E9BB279395F695879577955A
:1009A0006795B795F111F8CFFAF4BB0F11F460FF1A
:1009B0001BC06F5F7F4F8F4F9F4F16C0882311F072
:1009C00096E911C0772321F09EE8872F762F05C086
:1009D000662371F096E8862F70E060E02AF09A9521
:1009E000660F771F881FDAF7880F9695879597F916
:1009F000089597F99F6780E870E060E008959FEFA1
:100A000080EC089500240A941616170618060906A5
:100A1000089500240A941216130614060506089574
:100A2000092E0394000C11F4882352F0BB0F40F4FC
:100A3000BF2B11F460FF04C06F5F7F4F8F4F9F4F3C
:100A4000089557FD9058440F551F59F05F3F71F0BE
:100A50004795880F97FB991F61F09F3F79F0879525
:100A60000895121613061406551FF2CF4695F1DFAE
:100A700008C0161617061806991FF1CF869571053E
:100A8000610508940895E894BB2766277727CB0172
:100A900097F90895AEE0B0E0E0E5F5E00C940B08BE
:100AA0000D891E8986E08C831A8309838FEF9FE767
:100AB0009E838D83AE01475E5F4F6F89788DCE0137
:100AC00001960E946C05EF81F885E00FF11F1082FE
:100AD0002E96E4E00C942708ABE0B0E0E2E7F5E006
:100AE0000C94FD076C017B018A01FC0117821682C0
:100AF000838181FFCCC1CE0101963C01F601938137
:100B0000F70193FD859193FF81917F01882309F47B
:100B1000BAC1853239F493FD859193FF81917F01AC
:100B2000853229F4B60190E00E946307E7CF912C4B
:100B3000212C312CFFE1F315D8F08B3279F038F409
:100B4000803279F08332A1F4232D20611DC08D32D3
:100B500061F0803369F4232D216016C0832D8260FB
:100B6000382EE32DE4603E2E2AC0F32DF8601DC020
:100B700037FC2DC020ED280F2A3040F08E32B9F41A
:100B800036FC81C1232D2064322E19C036FE06C0EA
:100B90008AE0989E200D1124922E11C0EAE02E9E2C
:100BA000200D1124222EF32DF0623F2E08C08C362A
:100BB00021F4832D8068382E02C0883641F4F70175
:100BC00093FD859193FF81917F018111B3CF982F80
:100BD0009F7D9554933028F40C5F1F4F9FE39983BA
:100BE0000DC0833631F0833771F0833509F059C079
:100BF00021C0F801808189830E5F1F4F8824839470
:100C0000912C530113C02801F2E04F0E511CF80142
:100C1000A080B18036FE03C0692D70E002C06FEF86
:100C20007FEFC5010E9458074C018201F32DFF7729
:100C30003F2E16C0280122E0420E511CF801A08070
:100C4000B18036FE03C0692D70E002C06FEF7FEF08
:100C5000C5010E944D074C01F32DF0683F2E820123
:100C600033FC1BC0822D90E088169906B0F4B601C3
:100C700080E290E00E9463072A94F4CFF50137FCEC
:100C8000859137FE81915F01B60190E00E94630774
:100C900021102A9421E0821A91088114910471F79D
:100CA000E8C0843611F0893641F5F80137FE07C0F7
:100CB00060817181828193810C5F1F4F08C06081C8
:100CC0007181072E000C880B990B0E5F1F4FF32DBF
:100CD000FF763F2E97FF09C090958095709561959E
:100CE0007F4F8F4F9F4FF0683F2E2AE030E0A301E7
:100CF0000E949F07882E861845C0853731F4232D22
:100D00002F7EB22E2AE030E025C0932D997FB92E98
:100D10008F36C1F018F4883579F0B5C0803719F0F6
:100D2000883721F0B0C0E92FE061BE2EB4FE0DC0BF
:100D3000FB2DF460BF2E09C034FE0AC0292F2660A7
:100D4000B22E06C028E030E005C020E130E002C04D
:100D500020E132E0F801B7FE07C060817181828135
:100D600093810C5F1F4F06C06081718180E090E02D
:100D70000E5F1F4FA3010E949F07882E8618FB2D30
:100D8000FF773F2E36FE0DC0232D2E7FA22E891415
:100D900058F434FE0BC032FC09C0832D8E7EA82E81
:100DA00005C0B82CA32C03C0B82C01C0B92CA4FEDC
:100DB0000FC0FE01E80DF11D8081803321F49A2DD2
:100DC000997EA92E09C0A2FE06C0B394B39404C0B4
:100DD0008A2D867809F0B394A3FC11C0A0FE06C04A
:100DE000B21488F4280C922C9B180EC0B21460F434
:100DF000B60180E290E00E946307B394F7CFB2148B
:100E000018F42B1802C0982C212CA4FE10C0B60197
:100E100080E390E00E946307A2FE17C0A1FC03C01C
:100E200088E790E002C088E590E0B6010CC08A2D0A
:100E3000867859F0A1FE02C08BE201C080E2A7FCD7
:100E40008DE2B60190E00E946307891438F4B60180
:100E500080E390E00E9463079A94F7CF8A94F301AD
:100E6000E80DF11D8081B60190E00E9463078110BA
:100E7000F5CF222009F442CEB60180E290E00E9434
:100E800063072A94F6CFF6018681978102C08FEF1F
:100E90009FEF2B96E2E10C941908FC01059061503C
:100EA00070400110D8F7809590958E0F9F1F089580
:100EB000FC016150704001900110D8F78095909529
:100EC0008E0F9F1F08950F931F93CF93DF93FB0106
:100ED000238121FD03C08FEF9FEF2CC022FF16C09E
:100EE00046815781248135814217530744F4A081FC
:100EF000B1819D012F5F3F4F318320838C932681E9
:100F000037812F5F3F4F3783268314C08B01EC015D
:100F1000FB010084F185E02D0995892BE1F6D801CC
:100F200016968D919C911797019617969C938E9388
:100F30001697CE01DF91CF911F910F910895FA017D
:100F4000AA27283051F1203181F1E8946F936E7F08
:100F50006E5F7F4F8F4F9F4FAF4FB1E03ED0B4E0F9
:100F60003CD0670F781F891F9A1FA11D680F791F3A
:100F70008A1F911DA11D6A0F711D811D911DA11D4B
:100F800020D009F468943F912AE0269F112430195B
:100F9000305D3193DEF6CF010895462F4770405DF6
:100FA0004193B3E00FD0C9F7F6CF462F4F70405DA5
:100FB0004A3318F0495D31FD4052419302D0A9F700
:100FC000EACFB4E0A6959795879577956795BA95FA
:100FD000C9F700976105710508959B01AC010A2EC0
:100FE00006945795479537952795BA95C9F7620F97
:100FF000731F841F951FA01D08952F923F924F923B
:101000005F926F927F928F929F92AF92BF92CF9298
:10101000DF92EF92FF920F931F93CF93DF93CDB7A1
:10102000DEB7CA1BDB0B0FB6F894DEBF0FBECDBF19
:1010300009942A88398848885F846E847D848C84EA
:101040009B84AA84B984C884DF80EE80FD800C81F3
:101050001B81AA81B981CE0FD11D0FB6F894DEBFD6
:0C1060000FBECDBFED010895F894FFCF46
:10106C0004014A6F79737469636B204D6F6465007A
:10107C004D616E75616C204D6F646500566F6963D0
:10108C006520636F6E742E204D6F64650057656C20
:10109C00636F6D65002575636D202575636D20008C
:00000001FF
